:020000040800F2
:1000000000000120013A0008253900082B390008BA
:1000100031390008373900083D3900080000000078
:10002000000000000000000000000000433900084C
:1000300051390008000000005F3900086D390008E0
:10004000513A0008513A0008513A0008513A000864
:10005000513A0008513A0008513A0008513A000854
:10006000513A0008513A0008513A0008793900081D
:10007000513A0008513A0008513A0008513A000834
:10008000513A0008513A0008513A0008513A000824
:10009000513A0008513A0008513A0008513A000814
:1000A000513A00088D390008513A0008513A0008C9
:1000B000513A0008513A0008513A0008513A0008F4
:1000C000513A0008513A0008513A0008513A0008E4
:1000D000513A0008513A0008A1390008B539000822
:1000E000513A0008513A0008513A0008513A0008C4
:1000F000513A0008513A0008513A0008C93900083D
:10010000513A00080000000000000000513A0008C9
:10011000513A0008513A0008513A0008513A000893
:10012000513A0008513A0008513A0008513A000883
:10013000513A0008513A0008000000000000000099
:10014000513A0008513A0008513A000800000000F6
:10015000000000000000000000000000000000009F
:10016000513A0008513A0008513A0008513A000843
:10017000513A0008513A0008513A0008513A000833
:10018000513A0008513A0008000000000000000049
:04019000513A0008D8
:1001940010B5054C237833B9044B13B10448AFF3BD
:1001A40000800123237010BD0C000020000000001B
:1001B40044A4000808B5034B1BB103490348AFF33B
:1001C400008008BD000000001000002044A40008C6
:1001D40080B483B000AF786039600F4A7B681360E5
:1001E4000E4A3B6813600E4B00221A800D4B00220E
:1001F4001A800D4B00221A800C4B00221A800C4BE3
:1002040000221A700B4B00221A7000BF0C37BD4637
:100214005DF8047B704700BFC4040020C8040020BC
:100224002C0200202A0200203A0400203804002076
:10023400D80400203805002080B582B000AF786073
:1002440039603022796809480AF0E6F820223968D2
:1002540007480AF0E1F8074B01221A70064B012205
:100264001A70012318460837BD4680BDD804002003
:1002740008050020460500204705002080B586B00B
:1002840000AF78600B467B8013463B80874B1B781E
:10029400022B01D0002304E11022796884480AF07B
:1002A400BBF8834B0022DA737A88824BA3FB0213D8
:1002B400D9080B469B000B445B00D31A9BB2DBB2FC
:1002C4003033DBB23B737B887A4AA2FB0323DB081F
:1002D4007B807A88774BA3FB0213D9080B469B00DB
:1002E4000B445B00D31A9BB2DBB23033DBB2FB723C
:1002F4007B88704AA2FB0323DB087B807A886D4BE2
:10030400A3FB0213D9080B469B000B445B00D31AD2
:100314009BB2DBB23033DBB2BB727B88654AA2FB93
:100324000323DB087B807A88624BA3FB0213D90882
:100334000B469B000B445B00D31A9BB2DBB23033F9
:10034400DBB27B727B885B4AA2FB0323DB087B80E6
:100354007B88DBB23033DBB23B7200237B6100234A
:100364003B6102E07B6901337B6107F108027B6931
:1003740013441B78302BF5D00BE07A69531C7B6156
:100384003B69591C396118323A4412F8101C4A4A24
:10039400D1547B69042BF0DD474A3B6913440022A6
:1003A4001A703A88434BA3FB0213D9080B469B00EF
:1003B4000B445B00D31A9BB2DBB23033DBB23B732A
:1003C4003B883C4AA2FB0323DB083B803A88394B39
:1003D400A3FB0213D9080B469B000B445B00D31A02
:1003E4009BB2DBB23033DBB2FB723B88314AA2FBF7
:1003F4000323DB083B803A882E4BA3FB0213D90866
:100404000B469B000B445B00D31A9BB2DBB2303328
:10041400DBB2BB723B88274AA2FB0323DB083B8089
:100424003A88244BA3FB0213D9080B469B000B44C8
:100434005B00D31A9BB2DBB23033DBB27B723B88F6
:100444001C4AA2FB0323DB083B803B88DBB230332E
:10045400DBB23B7202E07B6901337B6107F1080286
:100464007B6913441B78302BF5D00BE07A69531C5D
:100474007B613B69591C396118323A4412F8101CEB
:100484000E4AD1547B69042BF0DD0C4A3B691344BA
:1004940000221A700A4B06221A70044B04221A70A6
:1004A400012318461837BD4680BD00BF470500200C
:1004B40028050020CDCCCCCC3805002040050020F8
:1004C4004605002080B483B000AF0346FB710C4B9B
:1004D4001B885A1C91B20A4A11801946094AFB79B1
:1004E4005354074B1B88B3F5007F02D1044B002201
:1004F4001A8000BF0C37BD465DF8047B704700BF0F
:100504002A0200202800002080B483B000AF786065
:10051400184B1B78002B01D0002324E0164B1A88BB
:10052400164B1B889A4201D100231CE0124B1B88F6
:100534005A1C91B2104A11801A46114B9A5C7B687E
:100544001A700D4B1B88B3F5007F02D10A4B0022B1
:100554001A80094B1A88094B1B889A4202D1094B0D
:1005640003221A70012318460C37BD465DF8047B3C
:10057400704700BFC20400203A0400203804002061
:10058400380200204705002080B584B000AF7860B1
:100594000B467B8013463B807B88B3F5F87F01D9FB
:1005A4000023A0E0524B1B78032B01D000239AE0D8
:1005B400504800F075F97B884F4A13604E4B1A6817
:1005C4004E4B83FB02139910D317C91A0B469B0099
:1005D4000B445B00D11ACBB23033DBB2BB72464B57
:1005E4001B68464A82FB03129210DB17D31A424A55
:1005F4001360414B1A68414B83FB02139910D317C4
:10060400C91A0B469B000B445B00D11ACBB23033A2
:10061400DBB27B72384B1B68384A82FB03129210A0
:10062400DB17D31A344A1360334B1A68334B83FBFA
:1006340002139910D317C91A0B469B000B445B0095
:10064400D11ACBB23033DBB23B723B7A184600F09E
:1006540057F97B7A184600F053F9BB7A184600F034
:100664004FF90D2000F04CF90A2000F049F93E2022
:1006740000F046F90023FB810023BB8125E0BB8900
:100684005A1CBA811A467B681A441D4B1B88591C94
:1006940088B21B490880194612781A4B5A54184BD1
:1006A4001B88B3F5007F02D1154B00221A80BA894A
:1006B4003B889A4206D13B885B427A6813447B604C
:1006C4000023BB81FB890133FB81FA897B889A4231
:1006D400D5D30D4B01221A700C4B00221A70044B17
:1006E40004221A70012318461037BD4680BD00BF8E
:1006F400470500203CA5000848050020676666669B
:100704003804002038020020C1040020C204002064
:1007140080B500AF0B4B1B78002B06D10A4B1B781E
:10072400002B02D0084B00221A70084B1A88084B81
:100734001B889A4201D000F0C5FA00F003F900BF0B
:1007440080BD00BFD8040020460500202A020020F6
:100754002C02002080B500AF2D4B1B68002B38D035
:100764002B4B1B68013B2A4A1360294B1B68002B47
:100774002FD1284B1B780A2B2CD801A252F823F036
:10078400D9070008D9070008D9070008D9070008C5
:10079400D9070008B1070008CF070008D9070008E7
:1007A400D9070008B9070008D9070008194B032224
:1007B4001A700FE0184B1B6801209847154B012253
:1007C4001A70134B64221A6004E0124B07221A7049
:1007D40000E000BF114B1B78002B05D00F4B1B789A
:1007E400013BDAB20D4B1A700D4B1B78002B0CD069
:1007F4000B4B1B78013BDAB2094B1A70084B1B7880
:10080400002B02D1074B00221A7000BF80BD00BF2D
:10081400BC04002046050020C4040020C3040020BA
:10082400290200202802002080B483B000AF786041
:10083400044A7B68136000BF0C37BD465DF8047B37
:10084400704700BFCC04002080B483B000AF786050
:10085400044A7B68136000BF0C37BD465DF8047B17
:10086400704700BFD004002080B483B000AF78602C
:10087400044A7B68136000BF0C37BD465DF8047BF7
:10088400704700BFD404002080B400AF034B1B7832
:100894001846BD465DF8047B704700BF470500203D
:1008A40080B485B000AF78600023FB6017E0FB687C
:1008B4005A1CFA601A467B681A440F4B1B88591C51
:1008C40088B20D490880194612780C4B5A540A4BC9
:1008D4001B88B3F5007F02D1074B00221A80FB6806
:1008E4007A6813441B78002BE1D100BF00BF143792
:1008F400BD465DF8047B70473804002038020020B0
:1009040080B483B000AF0346FB710C4B1B885A1CA8
:1009140091B20A4A11801946094AFB795354074B8C
:100924001B88B3F5007F02D1044B00221A8000BF5C
:100934000C37BD465DF8047B704700BF38040020C7
:100944003802002080B500AF984B1B68002B40F0A4
:100954007B81974B1B78002B00F07681944B1B789E
:10096400013B092B00F26C8101A252F823F000BF75
:100974009D0900080B0A00082D0A0008D50A000882
:10098400190A0008E30A0008F10A0008510C0008DB
:10099400450C0008FD090008864B00221A70864B9E
:1009A40000221A70854B1B78002B1BD0834B1B78BD
:1009B400013BDAB2814B1A70804B1B78002B0AD1B1
:1009C4007B4B09221A707E4B1B6800209847774B9B
:1009D40064221A603DE17B48FFF762FF734B0A22F1
:1009E4001A6036E17748FFF75BFF704B0A221A6002
:1009F400724B05221A702CE17348FFF751FF6B4BC1
:100A04000A221A6025E17148FFF74AFF674B052265
:100A14001A601EE16E4B00221A706E48FFF740FF09
:100A2400624B0A221A6014E16B48FFF739FF222057
:100A3400FFF766FF694B00221A6011E0674B1B68E1
:100A4400674AD35C002B10D0644B1B68644AD35CA8
:100A54001846FFF755FF614B1B6801335F4A13606B
:100A64005E4B1B682F2BE9DD00E000BF2220FFF75F
:100A740047FF2C20FFF744FF2220FFF741FF574B8D
:100A840000221A6011E0554B1B68564AD35C002BB8
:100A940010D0524B1B68534AD35C1846FFF730FF03
:100AA4004E4B1B6801334D4A13604C4B1B681F2B84
:100AB400E9DD00E000BF2220FFF722FF0D20FFF751
:100AC4001FFF0A20FFF71CFF384B64221A60C0E0A6
:100AD4004548FFF7E5FE354B0A221A60B9E03D4868
:100AE400FFF7DEFE314B0A221A60B2E03F4B1B785F
:100AF400002B00F0AD80364B04221A703C48FFF7FF
:100B0400CFFE2220FFF7FCFE3A48FFF7C9FE222061
:100B1400FFF7F6FE2C20FFF7F3FE2220FFF7F0FE8E
:100B24002E4B00221A6011E02C4B1B68324AD35C16
:100B3400002B10D0294B1B682F4AD35C1846FFF7B3
:100B4400DFFE264B1B680133244A1360234B1B68CA
:100B54000F2BE9DD00E000BF2220FFF7D1FE2C209F
:100B6400FFF7CEFE1D4B00221A6011E01B4B1B68E1
:100B74001E4AD35C002B10D0184B1B681B4AD35C55
:100B84001846FFF7BDFE154B1B680133134A13606B
:100B9400124B1B68052BE9DD00E000BF2C20FFF79A
:100BA400AFFE0E4B00221A603AE000BFBC040020E6
:100BB40046050020C2040020C1040020C004002017
:100BC400C404002024A5000858A500082CA500088A
:100BD4004705002048A500087CA50008480500201A
:100BE400D80400200805002088A500083805002046
:100BF4006CA50008A8A4000828050020154B1B6854
:100C0400154AD35C002B10D0124B1B68124AD35CDC
:100C14001846FFF775FE0F4B1B6801330D4A13602E
:100C24000C4B1B68052BE9DD00E000BF0D20FFF72E
:100C340067FE0A20FFF764FE084B32221A6008E0C0
:100C4400074B01221A7004E000BF02E000BF00E07D
:100C540000BF80BD4805002040050020BC040020E2
:100C64004605002080B485B000AF78600B467B80D9
:100C740013467B700023FB7316E0FB7B7A681344F6
:100C84001A787B880E49CB5C9A4201D0002310E08D
:100C94007B8801337B807B88B3F5007F01D10023FF
:100CA4007B80FB7B0133FB73FA7B7B789A42E4D332
:100CB400012318461437BD465DF8047B704700BF16
:100CC4002800002080B582B000AF8D4B1B88FB80CC
:100CD40071E38C4B1B78322B00F24E8301A252F845
:100CE40023F000BFB50D0008750E0008930E000830
:100CF4007D1300087D1300087D1300087D13000890
:100D04007D1300087D1300087D130008AB0E000856
:100D1400C90E0008E70E0008250F00087D1300081F
:100D24007D1300087D1300087D1300087D1300085F
:100D34007D130008CF0F0008ED0F00087D13000895
:100D44007D1300087D1300087D1300087D1300083F
:100D54007D1300087D1300087D13000805100008AA
:100D64007D1300087D1300087D1300087D1300081F
:100D74007D1300087D1300087D1300087D1300080F
:100D84007D1300086510000883100008A9100008EE
:100D94005911000877110008D9110008F71100084B
:100DA4001B1200086F1200087D130008CF12000800
:100DB400554B1B881A46554B9B5C412B02D1514B1A
:100DC40001221A70504B1B881A46504B9B5C572BC0
:100DD40006D14C4B0A221A704B4B1A884C4B1A8082
:100DE400494B1B881A46494B9B5C6C2B02D1454BE3
:100DF40014221A70444B1B881A46444B9B5C2B2BC1
:100E040006D1404B1E221A703F4B1A88404B1A8061
:100E14003D4B1B881A463D4B9B5C0D2B02D1394B35
:100E240028221A70384B1B881A46384B9B5C432B7C
:100E340006D0354B1B881A46344B9B5C442B06D199
:100E4400304B32221A70304B1A88314B1A802E4B99
:100E54001B881A462D4B9B5C3E2B05D12D4B002243
:100E64001A702D4B00221A702C4B64221A7094E2D3
:100E7400254B1B881A46254B9B5C542B03D1214BD5
:100E840002221A7089E21F4B00221A7085E21E4B5F
:100E94001B881A461D4B9B5C0A2B40F07182194B30
:100EA40000221A706CE2184B1B881A46174B9B5C85
:100EB400492B03D1134B0B221A706EE2114B002203
:100EC4001A706AE2104B1B881A46104B9B5C462B27
:100ED40003D10C4B0C221A705FE20A4B00221A70E9
:100EE4005BE2094B1B881A46084B9B5C492B03D1D8
:100EF400044B0D221A7050E2024B15221A704CE278
:100F04002A020020280200202C02002028000020B1
:100F14002E020020C3040020C20400202902002065
:100F24009B4B1B881A469B4B9B5C0A2B40F02A82E6
:100F3400994B00221A70994B1B880B22194698482A
:100F4400FFF790FE0346012B09D1964B1B78032B28
:100F540005D1944B04221A70934B14221A608F4BC0
:100F64001B88112219469148FFF77CFE0346012B8A
:100F74000CD18C4B01221A708D4B00221A708D4BB0
:100F84001B68002B02D08B4B1B689847834B1B8834
:100F94000F2219468848FFF765FE0346012B40F0EF
:100FA400F181804B1B78032B00F0EC817D4B0122F7
:100FB4001A707F4B00221A707E4B1B68002B00F0C6
:100FC400E1817C4B1B689847DCE1714B1B881A4616
:100FD400704B9B5C692B03D16F4B15221A70DCE1BB
:100FE4006D4B00221A70D8E1694B1B881A46694B75
:100FF4009B5C0A2B40F0C881674B00221A70C3E146
:10100400634B1B881A46634B9B5C0A2B40F0BE81E2
:10101400614B00221A70634B1B78042B40F0B6819D
:101024005E4B1B880D2219466448FFF71BFE0346DE
:10103400012B40F0AB815B4B07221A705A4B002204
:101044001A605B4B02221A705D4B00221A705D4BD2
:101054001B68002B00F09A815A4B1B68984795E156
:101064004B4B1B881A464B4B9B5C0A2B03D14A4BB8
:1010740029221A7091E1484B00221A708DE1444BE9
:101084001B881A46434B9B5C2B2B03D1424B2B22D0
:101094001A7082E1404B2A221A703D4B1A883F4B4A
:1010A4001A807AE13A4B1B881A463A4B9B5C0A2B0E
:1010B40040F06E81384B00221A70384B1B88022294
:1010C40019464148FFF7CEFD0346012B1DD1354B90
:1010D4001B78012B05D1344B00221A60314B0A22B4
:1010E4001A70304B1B780A2B05D12F4B00221A6043
:1010F4002C4B02221A702B4B1B78022B05D1294B47
:1011040005221A70284B00221A60244B1B880422E3
:1011140019462E48FFF7A6FD0346012B0BD1214BA0
:1011240001221A70264B01221A70214B00221A70D8
:101134001D4B00221A60194B1B88072219462448AC
:10114400FFF790FD0346012B40F02281164B00224D
:101154001A601DE10E4B1B881A460E4B9B5C492BF3
:1011640003D10D4B2C221A7017E10B4B2A221A7053
:1011740013E1074B1B881A46064B9B5C502B03D18B
:10118400054B2D221A7008E1034B2A221A7004E140
:101194002C02002028000020280200202E0200201B
:1011A400ACA4000846050020BC040020BCA4000830
:1011B40047050020D0040020D0A4000894A500080E
:1011C400C0040020CC040020E4A4000818A50008F2
:1011D4000CA500087D4B1B881A467D4B9B5C442B59
:1011E40003D17C4B2E221A70D7E07A4B2A221A7034
:1011F400D3E0764B1B881A46754B9B5C2C2B06D18F
:10120400744B2F221A70744B00221A80C5E0714B64
:101214002A221A70C1E06D4B1B881A466C4B9B5CEA
:101224003A2B03D16B4B30221A70B6E06A4B1B8801
:101234001A46920013445B009AB2674B1A80634BC0
:101244001B881A46624B9B5C9AB2634B1B881344FF
:101254009BB2303B9AB2604B1A805F4B1A885F4B4B
:101264001A805F4B00221A8097E05B4B1B88013B7E
:101274009AB2594B1A80584B1B88002B0FD1554BEF
:1012840000221A70574B1B68002B00F08380554BCB
:101294001B68524A12881146534898477AE04B4BD0
:1012A4001B8819464E4B1B885A1C90B24C4A10801E
:1012B4001A46474B595C4C4B9954494B1B88802B1D
:1012C40068D1474B00221A8064E0404B1B881A46C1
:1012D4003F4B9B5C0A2B5FD13E4B00221A70434B61
:1012E4001B88072219464248FFF7BCFC0346012B22
:1012F40013D1404B1B78072B0FD13E4B08221A7099
:101304003D4B03221A703D4B1B68002B02D03B4B14
:101314001B6898473A4B00221A60344B1B880C22F6
:1013240019463848FFF79EFC0346012B0FD1314B79
:1013340001221A70324B00221A602F4B00221A70BD
:10134400314B1B68002B02D02F4B1B689847274B4F
:101354001B88062219462D48FFF784FC0346012BFF
:101364001AD1244B1B78052B16D1224B07221A7055
:10137400234B00221A600FE0164B00221A700CE077
:1013840000BF0AE000BF08E000BF06E000BF04E0C1
:1013940000BF02E000BF00E000BF0C4B1B8801331C
:1013A4009AB20A4B1A80094B1B88B3F5007F02D10D
:1013B400064B00221A80054B1B88FA889A427FF458
:1013C40088AC00BF00BF0837BD4680BD2C0200209A
:1013D40028000020280200203002002032020020D1
:1013E40034020020C80400203C0400202E02002007
:1013F400E8A400084605002047050020D404002086
:10140400BC040020FCA40008D0040020F4A40008BC
:10141400B0B582B000AF78607B681B68B3F1A04FB1
:1014240040F09980544B1B781846544B1988544A01
:10143400030113440E330A461A80524B1B684E4A6A
:1014440012784F4912010A44128813444D4A13601A
:101454004C4B5B68484A1278494912010A440232EB
:1014640012881344474A5360464B9B68424A127899
:10147400434912010A44043212881344414A9360D6
:10148400404BDB683C4A12783D4912010A4406325B
:10149400128813443B4AD3603A4B1B69364A12788C
:1014A400374912010A44083212881344354A136139
:1014B400344B5B69304A1278314912010A440A32CA
:1014C400128813442F4A53612E4B9B692A4A12787F
:1014D4002B4912010A440C3212881344294A93619D
:1014E400284BDB69244A1278254912010A440E323A
:1014F40012881344234AD3611F4B1B780133DAB299
:101504001D4B1A701C4B1A781B4B1A701E4B1B88F0
:10151400002B20D01C4B1B88013B9AB21A4B1A801B
:10152400194B1B88002B16D1184B1A88164B1A809E
:10153400114B1A78164B1A70164A124B14461D4654
:101544000FCD0FC495E80F0084E80F00124A1378FA
:1015540043F0020313707B681B68104A934206D160
:101564000F4802F049FF03469AB2044B1A8000BFA9
:101574000837BD46B0BD00BFE01B0020E41B0020BF
:10158400E00B0020E81B00202A1C0020281C00205F
:10159400E21B0020081C002020080020000400504A
:1015A400EC05002080B582B000AF78603E4B1B682C
:1015B4003E4A12783E4912010A4412889B1A3A4A5A
:1015C4001360394B5B68394A1278394912010A446D
:1015D400023212889B1A344A5360334B9B68334A55
:1015E4001278334912010A44043212889B1A2E4A93
:1015F40093602D4BDB682D4A12782D4912010A4461
:10160400063212889B1A284AD360274B1B69274A43
:101614001278274912010A44083212889B1A224A76
:101624001361214B5B69214A1278214912010A4452
:101634000A3212889B1A1C4A53611B4B9B691B4A32
:1016440012781B4912010A440C3212889B1A164A5A
:101654009361154BDB69154A1278154912010A4446
:101664000E3212889B1A104AD361104B1B78013337
:10167400DAB20E4B1A700D4B1A780C4B1A700D48D7
:1016840002F07AFD0C4802F061FC0C4B1B781B0144
:10169400074A134404221946094803F0CBF900BF52
:1016A4000837BD4680BD00BFE81B0020E11B0020B9
:1016B400E00B0020EC0500209C050020E01B00202E
:1016C4004C05002080B582B000AF78607B681B6851
:1016D4003A4A934252D13A4B1B7803F00403DBB2EB
:1016E400002B33D0374B1B68364AD28813441B78FF
:1016F4002B2B1ED1344B1B78002B02D1334B0322EE
:101704001A70314B1B780133DAB22F4B1A702E4BFF
:101714001B78032B10D12D4B1B78002B0CD0284A9F
:1017240013786FF382031370294B4FF068421A60E9
:1017340002E0254B00221A70224B1B68214AD288F2
:1017440013441B781946234800F084F91D4BDB88A9
:1017540001339AB21B4BDA801A4BDA88194B1B8A75
:1017640013409AB2174BDA80164B1B68154AD2887D
:10177400134401221946184807F09AFC7B681B6839
:10178400164A934216D10E4B1B7803F00403DBB2C6
:10179400002B05D0124B1B781946124800F05AF959
:1017A4000F4B1B781846FEF78DFE01220C490E489C
:1017B40007F07EFC00BF0837BD4680BD00440040F2
:1017C400200800202C080020401C0020411C002080
:1017D400341C002064080020180700200048004042
:1017E400580A0020540800209C07002080B485B0CB
:1017F40000AF78607B68DB88FB73E5E07B681B796E
:10180400062B00F2C48001A252F823F02D18000820
:101814004D18000879180008A5180008D118000808
:10182400EB180008431900087B681B687A68128962
:1018340013441B78552B40F0AE807B6801221A714B
:101844007B6805221A73A6E07B681B687A68128994
:1018540013441B784E2B03D17B6802221A719DE03E
:101864007B6800221A717B681B89013B9AB27B68F2
:101874001A8193E07B681B687A68128913441B7889
:10188400452B03D17B6803221A7187E07B68002211
:101894001A717B681B89013B9AB27B681A817DE0CF
:1018A4007B681B687A68128913441B78522B03D116
:1018B4007B6804221A7171E07B6800221A717B68CC
:1018C4001B89013B9AB27B681A8167E07B681B68BD
:1018D4007A68128913441B789AB27B68DA817B6830
:1018E40005221A715AE07B681B687A6812891344CE
:1018F4001B783A2B19D17B6806221A717B681B89E5
:1019040001339AB27B685A817B685A897B681B8A47
:1019140013409AB27B685A817B68DB89DBB283F01F
:101924003603DAB27B685A7338E07B6800221A7196
:101934007B681B89013B9AB27B681A812EE07B6825
:10194400DB89013B9AB27B68DA817B68DB89002BF7
:101954000CD07B685A7B7B681B68796809890B44C7
:101964001B785340DAB27B685A7316E07B68002216
:101974001A717B685A7B7B681B68796809890B44F8
:101984001B789A4209D17B6801229A7405E07B682E
:1019940000221A7102E000BF00E000BF7B681A89D0
:1019A4007B681B8A13409AB27B681A817B681B8907
:1019B40001339AB27B681A817B681A897B681B8A17
:1019C40013409AB27B681A817B681A89FB7B9BB2AD
:1019D4009A427FF413AF00BF00BF1437BD465DF8D1
:1019E400047B704790B486B000AFF860B9601346CA
:1019F400FB710023FB7522E0FB681A7AFB7DB96852
:101A04000B441B785340DAB2FB681A72FB7DBA6848
:101A14001A44FB681968FB689B88581C84B2F868F0
:101A240084800B4412781A70FB689A88FB689B893F
:101A340013409AB2FB689A80FB7D0133FB75FA7DF3
:101A4400FB799A42D8D3FB681B7A18461837BD46EF
:101A540090BC704780B483B000AF78600B46FB70D5
:101A64007B681A7AFB785340DAB27B681A727B6817
:101A74001A687B689B88591C88B2796888801344EB
:101A8400FA781A707B689A887B689B8913409AB2AB
:101A94007B689A807B681B7A18460C37BD465DF8D4
:101AA400047B704780B483B000AF78600B46FB7052
:101AB4001346BB707B681A687B689B88591C88B284
:101AC40079688880134455221A707B689A887B68E9
:101AD4009B8913409AB27B689A807B681A687B68FA
:101AE4009B88591C88B27968888013444E221A70E6
:101AF4007B689A887B689B8913409AB27B689A803A
:101B04007B681A687B689B88591C88B279688880CE
:101B1400134445221A707B689A887B689B8913401A
:101B24009AB27B689A807B681A687B689B88591C88
:101B340088B279688880134452221A707B689A8824
:101B44007B689B8913409AB27B689A807B681A6889
:101B54007B689B88591C88B2796888801344BA785A
:101B64000132D2B21A707B689A887B689B891340D1
:101B74009AB27B689A807B681A687B689B88591C38
:101B840088B27968888013443A221A707B689A88EC
:101B94007B689B8913409AB27B689A807B681A6839
:101BA4007B689B88591C88B2796888801344FA78CA
:101BB4001A707B689A887B689B8913409AB27B6809
:101BC4009A807B681B7A5AB2BB780133DBB25BB272
:101BD40053405BB2DAB27B681A727B681A7AFB787C
:101BE4005340DBB283F03603DAB27B681A727B6847
:101BF4001B7A18460C37BD465DF8047B704790B4D9
:101C040084B000AF786039600023FB7322E07B6806
:101C14001A7AFB7B39680B441B781343DAB27B686E
:101C24001A72FB7B5A1CFA731A463B681A447B6887
:101C340019687B689B88581C84B2786884800B443C
:101C440012781A707B689A887B689B8913409AB2D1
:101C54007B689A80FB7B3A6813441B78002BD6D1AF
:101C64007B681B7A18461037BD4690BC704780B419
:101C740085B000AF78600B46FB701346BB707B6881
:101C84005A8997F903309BB213449AB27B685A81FC
:101C94007B685A897B681B8A13409AB27B685A8195
:101CA4007B681B687A68528913441B78FB737B68D2
:101CB4005A8997F902309BB213449AB27B685A81CD
:101CC4007B685A897B681B8A13409AB27B685A8165
:101CD400FB7B18461437BD465DF8047B7047000053
:101CE40080B582B000AF786039607B6800229A7456
:101CF4003B6800221A727B681B687A685289134415
:101D04001B78F12B00F0B783F12B00F3C183B22BC6
:101D140030DCA02BC0F2BC83A03B122B00F2B883B2
:101D240001A252F823F000BF811D0008231E000801
:101D3400E31E00089D1F0008872000089524000862
:101D4400952400089524000895240008952400088B
:101D5400952400089524000895240008952400087B
:101D640095240008952400084D2200086B220008E1
:101D74003D230008F02B00F06E8389E34FF06841A7
:101D84004FF6FF7000F03EFC784B1A78784B1A70CF
:101D9400774B1B78013BDAB2754B1A70744B1A7887
:101DA400734B1A702122A0213868FFF77BFE704B19
:101DB4001B781B016F4A1344102219463868FFF739
:101DC40011FE6B4B00229A701EE0694B9B781A46F9
:101DD400694B53F82230694AA2FB03235B099AB288
:101DE400634B1A80624B1B7819463868FFF732FE42
:101DF4005F4B5B7819463868FFF72CFE5C4B9B7889
:101E04000133DAB25A4B9A70594B9B78072BDCD9C1
:101E14003B681B7A19463868FFF71CFE4EE3002224
:101E240001217868FFF723FF03461A46504B1A70C6
:101E34004F4B1B78002B36D04D4B1B784F4AA2FBDF
:101E44000323DB08DAB24A4B1A70494B1B78002B88
:101E540002D1474B01221A70454B1B78062B02D93D
:101E6400434B06221A70424B1A78454B1A70444B66
:101E74001B789BB21A4692001344DB009AB2414B82
:101E84001A80404B1A88404B1A80404B00221A702B
:101E94003F4A13786FF3C30313703E494FF6FF7044
:101EA40000F0B0FB0BE0374B00221A80364B0022C7
:101EB4001A804FF068414FF6FF7000F0A3FB022236
:101EC400A1213868FFF7EEFD0D213868FFF7C2FD48
:101ED4003B681B7A19463868FFF7BCFDEEE2002226
:101EE40001217868FFF7C3FE03461A46204B1A7097
:101EF4001F4B1B78002B1CD01D4B1B78092B02D8C1
:101F04001B4B0A221A701A4B1B789BB29B009AB285
:101F14001C4B1A801B4B1A881B4B1A801D494FF609
:101F2400FF7000F06FFB1A4A137843F00803137034
:101F34000BE0144B00221A80134B00221A804FF03E
:101F440068414FF6FF7000F05DFB0222A221386861
:101F5400FFF7A8FD0D213868FFF77CFD3B681B7A6D
:101F640019463868FFF776FDA8E200BFE01B0020A1
:101F740024080020E00B0020E81B0020CDCCCCCCB2
:101F84002C1C0020281C00202A1C00202D1C0020B2
:101F9400200800200000A0E8002201217868FFF753
:101FA40066FE03461A46A44B1A7000220121786883
:101FB400FFF75DFE03461A469F4B5A709E4B1B88E3
:101FC400632B02D89C4B64221A809B4B1B8842F2E1
:101FD4002832934203D9984B42F228321A800021C6
:101FE400964805F047FF0421944805F043FF082173
:101FF400924805F03FFF0C21904805F03BFF8F4BC2
:102004001B6800225A638D4B1B6800229A638B4B1A
:102014001B680022DA63894B1B6800221A64864B12
:102024001A88864B1B68DA62834B1B881A46834BDB
:10203400DA600021814805F011FE04217F4805F093
:102044000DFE08217D4805F009FE0C217B4805F0B2
:1020540005FE0322A3213868FFF724FD764B1B7885
:1020640019463868FFF7F6FC734B5B7819463868F5
:10207400FFF7F0FC3B681B7A19463868FFF7EAFC67
:102084001CE2002201217868FFF7F1FD03465AB2F1
:10209400694B1A70002201217868FFF7E8FD0346B6
:1020A4005AB2654B5A70002201217868FFF7DFFDB0
:1020B40003465AB2604B9A70002201217868FFF7F8
:1020C400D6FD03465AB25C4BDA705B4B93F9003091
:1020D400642B02DD584B5A221A70574B93F9003087
:1020E40013F1640F02DA544BA6221A70524B93F97F
:1020F4000130642B02DD504B5A225A704E4B93F937
:10210400013013F1640F02DA4B4BA6225A704A4B8A
:1021140093F900301A46642302FB03F31A46474B33
:102124001B68DB6AB2FBF3F31AB2454B1A80424BCD
:1021340093F901301A46642302FB03F31A463F4B1A
:102144001B68DB6AB2FBF3F31AB23D4B5A803A4B7D
:102154005B88642B02D9384B64225A80364B5A88E8
:10216400384B1A80364BB3F90030002B13DA344B5A
:10217400B3F900309BB25B429BB21AB2304B1A8067
:102184002F4BB3F900202D4B1B685A632B4B1B6854
:1021940000229A6309E0294B1B6800225A63284BEA
:1021A400B3F90020254B1B689A63254BB3F9023021
:1021B400002B13DA224BB3F902309BB25B429BB281
:1021C4001AB21F4B5A801E4BB3F902201B4B1B68DB
:1021D400DA631A4B1B6800221A6409E0174B1B6868
:1021E4000022DA63164BB3F90220144B1B681A64FD
:1021F4000522A4213868FFF755FC0F4B1B781946BC
:102204003868FFF727FC0C4B5B7819463868FFF7F2
:1022140021FC094B9B7819463868FFF71BFC064BD9
:10222400DB7819463868FFF715FC3B681B7A1946BA
:102234003868FFF70FFC41E124080020CC06002099
:10224400280800203E1C00209E4A137843F0040313
:1022540013704FF0EA314FF6FF7000F0D3F99A4B48
:1022640000221A702AE1994B00221A7019E0002208
:1022740001217868FFF7FBFC03461A46934B5A701A
:10228400924B1B781A46914B5978914B99548F4B2A
:102294005B78002B0AD08D4B1B780133DAB28B4B61
:1022A4001A708A4B1B782F2BE1D900E000BF884BB2
:1022B400002283F82F20854B00221A7019E0002297
:1022C40001217868FFF7D3FC03461A467F4B5A7006
:1022D4007E4B1B781A467D4B59787E4B99547B4B29
:1022E4005B78002B0AD0794B1B780133DAB2774B39
:1022F4001A70764B1B781F2BE1D900E000BF754B99
:102304000022DA7773497248FDF796FF5122B12112
:102314003868FFF7C7FB30226D493868FFF762FB66
:1023240020226C493868FFF75DFB3B681B7A19462D
:102334003868FFF78FFBC1E0FEF7A6FA0346002BCF
:102344000FD10222B2213868FFF7ACFBFF213868B5
:10235400FFF780FB3B681B7A19463868FFF77AFB66
:10236400ACE05A4B00221A7019E00022012178686F
:10237400FFF77DFC03461A46544B5A70534B1B78A7
:102384001A46524B5978544B9954504B5B78002B56
:102394000AD04E4B1B780133DAB24C4B1A704B4BBC
:1023A4001B780F2BE1D900E000BF4B4B0022DA73FE
:1023B400002201217868FFF75AFC03461A46434B72
:1023C4001A70002201217868FFF751FC03461A466F
:1023D4003E4B5A70002201217868FFF748FC0346FF
:1023E4001A463A4B9A70002201217868FFF73FFCA5
:1023F40003461A46354BDA70344B1A88374B1A8029
:10240400324B5A88364B1A80344B1B88344A128814
:1024140019463148FDF732FF1622B2213868FFF71A
:1024240041FB0D213868FFF715FB10222A49386853
:10243400FFF7D8FA022229493868FFF7D3FA0222B3
:1024440027493868FFF7CEFA3B681B7A1946386883
:10245400FFF700FB32E00222F0213868FFF722FB8D
:102464000D213868FFF7F6FA3B681B7A194638687D
:10247400FFF7F0FA22E01B493868FFF7C0FB1A495E
:102484003868FFF7BCFB0A213868FFF7E3FA15E068
:102494007B681B687A68528913441B7802221946A8
:1024A4003868FFF7FFFAFF213868FFF7D3FA3B6873
:1024B4001B7A19463868FFF7CDFA00BF00BF08370A
:1024C400BD4680BD20080020401C002024080020B8
:1024D40074080020A4080020C4080020D4080020A8
:1024E400D60800205CA40008A4A5000880B500AFAD
:1024F4003C4B0A221A703C4B1A683C4B1B68134035
:10250400002B06D0012220214FF0904003F05EFD05
:1025140005E0002220214FF0904003F057FD324B9C
:102524001B685B08304A13602F4B1B68002B03D1D8
:102534002D4B4FF000421A602D4B1B88002B19D0F5
:102544002B4B1B88013B9AB2294B1A80284B1B88C2
:10255400002B0FD1274B1B6800225A63254B1B68A5
:1025640000229A63234B1B680022DA63214B1B6809
:1025740000221A64204B1B88002B30D01E4B1B8872
:10258400013B9AB21C4B1A801B4B1B88002B26D193
:10259400194BC8221A80194B00221A720222F02108
:1025A4001648FFF77FFA0E211448FFF753FA134B2E
:1025B4001B7A19461148FFF74DFA114B00221A7283
:1025C4000222F0210E48FFF76DFA0F210C48FFF7A5
:1025D40041FA0B4B1B7A19460948FFF73BFA00BF37
:1025E40080BD00BF3C1C0020301C0020341C002097
:1025F4003E1C0020CC060020DC0B002054080020E8
:102604006408002080B483B000AF78603960094B5F
:102614001A687B681340074A1360064B1A683B68C4
:102624001343044A136000BF0C37BD465DF8047BB6
:10263400704700BF341C002080B582B000AF7860C2
:102644007B68DBB21A464FF48051034803F0BEFCAA
:1026540000BF0837BD4680BD0008004890B484B070
:1026640000AF78600B467B800023FB8110E0FB8980
:102674007A681A440B4B19680A4BDB88581C84B2DD
:102684000848C4800B4412781A70FB890133FB811B
:10269400FA897B889A42EAD300BF00BF1037BD464F
:1026A40090BC70474008002080B500AF054906483B
:1026B400FFF7A5FA4EF6A0610448FFF7A3FF00BF99
:1026C40080BD00BF64A40008540800200000FFFF80
:1026D40080B500AF05490648FFF791FA4FF46E4103
:1026E4000448FFF78FFF00BF80BD00BF7CA4000833
:1026F400540800200000FFFF80B500AF05490648DC
:10270400FFF77DFA4EF6A8610448FFF77BFF00BF90
:1027140080BD00BF94A40008540800200000FFFFFF
:1027240080B500AF9F4B00221A709F4B9F4A1A60DE
:102734009D4B00221A719C4B00221A819A4B002255
:10274400DA80994BFF221A82994B9A4A1A60984B65
:102754000022DA80964B00229A80954BFF229A81C0
:10276400954B964A1A60944B00221A71924B0022A0
:102774001A81914B0022DA808F4B7F221A82904B70
:10278400904A1A608E4B0022DA808D4B00229A8088
:102794008B4B7F229A818C4B0A221A708B4B4FF001
:1027A40068421A608A4BC8221A808A4B00221A7027
:1027B400894B1B78283BDAB2874B1A70864B1A7800
:1027C400854B1A70854B00221A8001F041F900F004
:1027D4008FFA00F0D7FD00F0B7FD00F0F5FA00F035
:1027E40091FB00F011FC00F0D3FC00F04DFD00F073
:1027F4007BFD00F079FC774B00221A70784805F0D5
:1028040065F9694B1B68684AD2881344012219464A
:10281400744806F04DFC01227349744806F048FCE4
:10282400734805F0EBF80021714805F017FA04210C
:102834006F4805F013FA08216D4805F00FFA0C21D2
:102844006B4805F00BFA6A4B1B6800225A63684B0D
:102854001B6800229A63664B1B680022DA63644B90
:102864001B6800221A6401224FF48051614803F06E
:10287400ADFB61496148FDF7ABFC6148FDF7D4FF4E
:102884006048FDF7E1FF6048FDF7EEFF01F03AF91B
:1028940003465E4A13604C4B1B78002B01D1FFF7B3
:1028A40025FE01F02FF90246584B1B68D31A092B59
:1028B40032D901F027F90346544A13603A4B1B7985
:1028C400002B0CD0384B1B7B013BDAB2364B1A730E
:1028D400354B1B7B002B02D1334B00221A713A4B30
:1028E4001B78002B05D0384B1B78013BDAB2364BF2
:1028F4001A70474B1B78002B0CD0454B1B78013BBF
:10290400DAB2434B1A70424B1B78002B02D1414B75
:1029140000221A70FDF71EFF234B9B7C002B03D073
:1029240023492148FFF7DCF91F4B1A891E4BDB882A
:102934009A4202D01C48FEF759FF1F4B9B7C002B88
:1029440003D01F491C48FFF7CBF91B4B1A891A4BBC
:10295400DB889A4202D01848FEF748FF114B1B78D7
:1029640003F00203DBB2002B00F01A810D4A137846
:102974006FF3410313700B4B1B7803F00803DBB2B6
:10298400002B75D00A4B00221A721222A221084889
:10299400FFF788F80A210648FFF75CF81E4B00226F
:1029A4009A705AE0200800202C080020D808002043
:1029B400540800205C0A002040080020D8090020A8
:1029C400640800205C0B00203C1C0020341C002008
:1029D400DC0B0020E01B0020E11B00203E1C00203B
:1029E4008006002018070020580A00209C070020B9
:1029F400CC06002000080048612600083D26000897
:102A0400AD260008D5260008FD260008381C002045
:102A1400411C0020401C002024080020874B9B7888
:102A24001A46874B53F82230864AA2FB03235B09DC
:102A34009AB2824B1A80814B1B7819468248FFF761
:102A440009F87E4B5B7819467F48FFF703F87B4B08
:102A54009B780133DAB2794B9A70784B9B78072BC9
:102A6400DCD9794B1B7A19467748FEF7F3FF97E0D8
:102A7400754B00221A72754B1A78704BDA706F4BD3
:102A8400DA78734B1B78194649000B441946C80081
:102A9400194603460B44DB00DBB21344DAB2674B3E
:102AA400DA70664BDA78654BDA70694B1B781A4634
:102AB40092001344DBB20133DAB2604B9A705F4B7D
:102AC4009B781B01DAB25D4B9A705C4B9B780333A5
:102AD400DBB21A46A1215C48FEF7E4FF0A215A48FA
:102AE400FEF7B8FF554B9B781B09DAB2534B9A702B
:102AF400524B9B78013BDAB2504B9A704F4B9B7808
:102B040019465148FEF7A6FF19E04C4BDB781B0130
:102B1400504A1344102219464B48FEF763FF474BB3
:102B2400DB780833DAB2454BDA70444BDA78434B3E
:102B3400DA70424B9B78013BDAB2404B9A703F4BC0
:102B44009B78002BE1D13D4B00229A701EE03B4B59
:102B54009B781A463A4B53F822303A4AA2FB032395
:102B64005B099AB2354B1A80344B1B7819463648A8
:102B7400FEF770FF314B5B7819463348FEF76AFF66
:102B84002E4B9B780133DAB22C4B9A702B4B9B78EB
:102B9400072BDCD92C4B1B7A19462B48FEF75AFF1E
:102BA400294BDA88284B9B889A421CD02A4B1B68F5
:102BB400DB6903F08003802B15D1234B1A68224B69
:102BC400DB88591C88B22049C88013441A78224BE8
:102BD4001B6892B21A851C4BDA881B4B9B891340E5
:102BE4009AB2194BDA801D4B1B7803F00403DBB255
:102BF400002B39D01A4BDA88194B9B889A426DD036
:102C0400184B1B68DB6903F08003802B66D1144BDF
:102C14001A68134BDB88591C88B21149C8801344C5
:102C24001A78104B1B6892B21A850D4BDA880C4B3C
:102C34009B8913409AB20A4BDA804FE024080020A3
:102C4400081C0020CDCCCCCC54080020E21B002072
:102C54002C1C0020E00B0020180700202008002076
:102C6400640800209C0700201E4B9A881D4BDB88BB
:102C74009A4220D01B4B9A881A4BDB88D31A9AB2FB
:102C8400194B1A80184B1B8803F07F039AB2164B1A
:102C94001A80144B1B68134AD2881344124A1188B1
:102CA40080221846FDF770FC0346002B03D00D4B21
:102CB400DA880C4B9A800D4B1B68DB6903F08003A8
:102CC400802B0BD10848FDF71FFC0346002B05D0D1
:102CD400054B1A78054B1B6892B21A85FDF718FD4F
:102CE400D9E500BF64080020240800209C070020C8
:102CF40080B5A6B000AF07F1700328220021184662
:102D040007F082FB07F15C0300221A605A609A60A4
:102D1400DA601A613B1D58220021184607F074FB43
:102D240001233B674FF4A0237B670123FB67022346
:102D3400C7F888304FF48033C7F88C304FF4E01371
:102D4400C7F890300023C7F8943007F17003184691
:102D540003F054F90346002B01D000F0A1FB0F232C
:102D6400FB6502233B6600237B664FF48063BB66EE
:102D74000023FB6607F15C030221184604F092F974
:102D84000346002B01D000F08BFB0E4B7B6000232D
:102D94003B6100237B614FF49873FB624FF418533B
:102DA4003B630023BB6300233B643B1D184604F0D4
:102DB400AFFB0346002B01D000F072FB00BF983735
:102DC400BD4680BD8611200080B58AB000AF07F1F2
:102DD4001C0300221A605A609A603B1D00221A608C
:102DE4005A609A60DA601A615A61454B4FF0A0420A
:102DF4001A60434B00225A60414B00229A60404BB8
:102E040001221A613E4B00225A763D4B002283F880
:102E140020203B4B0022DA62394B01229A62384B64
:102E24000022DA60364B0422DA61354B012283F842
:102E34003020334B08225A61314B00221A76304B32
:102E440000225A632E4800F087FE0346002B01D06F
:102E540000F026FB0623FB614FF400433B62002392
:102E64007B6207F11C031946254802F0C7F90346A3
:102E7400002B01D000F014FB01237B600123BB6015
:102E840000233B610023FB6000237B610023BB61C3
:102E94003B1D19461A4801F0C5FE0346002B01D01C
:102EA40000F0FEFA02237B600223BB603B1D19463F
:102EB400134801F0B7FE0346002B01D000F0F0FAEE
:102EC40006237B600323BB603B1D19460C4801F0BD
:102ED400A9FE0346002B01D000F0E2FA07237B6031
:102EE4000423BB603B1D1946054801F09BFE0346C5
:102EF400002B01D000F0D4FA00BF2837BD4680BDB6
:102F04004C05002080B586B000AF3B4600221A6015
:102F14005A609A60DA601A615A61394B394A1A6008
:102F2400374B00225A60364B00229A60344B012200
:102F34001A61334B00225A76314B002283F8202049
:102F44002F4B0022DA602E4B0422DA612C4B002234
:102F540083F830202A4B08225A61294B00221A7622
:102F6400274B00225A63264800F0F6FD0346002B47
:102F740001D000F095FA01233B6001237B6000231C
:102F8400FB600023BB6000233B6100237B613B4665
:102F940019461B4801F046FE0346002B01D000F001
:102FA4007FFA08233B6002237B603B4619461448A2
:102FB40001F038FE0346002B01D000F071FA09231A
:102FC4003B6003237B603B4619460D4801F02AFE13
:102FD4000346002B01D000F063FA12233B60042364
:102FE4007B603B461946064801F01CFE0346002B55
:102FF40001D000F055FA00BF1837BD4680BD00BFB0
:103004009C0500200001005080B58AB000AF07F194
:103014001C0300221A605A609A603B1D00221A6049
:103024005A609A60DA601A615A612D4B2D4A1A600F
:103034002B4B00225A602A4B00229A60284B002214
:103044001A61274B00225A76254B002283F8202050
:10305400234B0022DA62224B01229A62204B002287
:10306400DA601F4B0122DA611D4B002283F8302005
:103074001B4B04225A611A4B00221A76184B002269
:103084005A63174800F068FD0346002B01D000F096
:1030940007FA0023FB6107F11C031946104802F0EC
:1030A400ADF80346002B01D000F0FAF90C237B6045
:1030B4000123BB6000233B610023FB6000237B6191
:1030C4000023BB613B1D1946054801F0ABFD0346D7
:1030D400002B01D000F0E4F900BF2837BD4680BDC5
:1030E400EC0500200004005080B588B000AF07F163
:1030F400100300221A605A609A60DA603B1D0022B5
:103104001A605A609A60204B204A1A601E4B0022B3
:103114005A601D4B00229A601B4B44F25062DA60E5
:10312400194B00221A61184B00225A61164B0022D7
:103134009A61154804F00AFC0346002B01D000F004
:10314400AFF94FF480533B6107F1100319460E4861
:1031540005F060F90346002B01D000F0A1F900232B
:103164007B600023BB600023FB603B1D19460648BF
:1031740005F0A6FE0346002B01D000F091F900BF34
:103184002037BD4680BD00BF80060020002C0140D2
:1031940080B58AB000AF07F11C0300221A605A60A0
:1031A4009A603B4600221A605A609A60DA601A619B
:1031B4005A619A61324B334A1A60314B63225A6026
:1031C4002F4B00229A602E4B42F22832DA602C4BAD
:1031D40000221A612A4B00229A61294804F0E6FC75
:1031E4000346002B01D000F05BF90023FB610023B0
:1031F4007B6207F11C031946214805F061FE034672
:10320400002B01D000F04CF960233B6000237B606D
:103214000023BB6000233B613B460022194618484B
:1032240004F0E4FF0346002B01D000F039F93B46DB
:1032340004221946124804F0D9FF0346002B01D09A
:1032440000F02EF93B46082219460D4804F0CEFF43
:103254000346002B01D000F023F93B460C2219460B
:10326400074804F0C3FF0346002B01D000F018F90F
:10327400034800F097FA00BF2837BD4680BD00BF61
:10328400CC0600200004004080B500AF144B154A62
:103294001A60134B4FF4E1325A60114B00229A60CA
:1032A4000F4B0022DA600E4B00221A610C4B0C22E9
:1032B4005A610B4B00229A61094B0022DA61084BD8
:1032C40000221A62064B00225A62054805F0A2FE4B
:1032D4000346002B01D000F0E3F800BF80BD00BF1F
:1032E400180700200044004080B500AF144B154A75
:1032F4001A60134B4FF4E1325A60114B00229A606A
:103304000F4B0022DA600E4B00221A610C4B0C2288
:103314005A610B4B00229A61094B0022DA61084B77
:1033240000221A62064B00225A62054805F072FE1A
:103334000346002B01D000F0B3F800BF80BD00BFEE
:103344009C0700200048004080B582B000AF0C4BC1
:103354005B690B4A43F001035361094B5B6903F05A
:1033640001037B607B68002200210B2002F043FAFA
:103374000B2002F05CFA00BF0837BD4680BD00BFD9
:103384000010024080B58AB000AF07F11403002298
:103394001A605A609A60DA601A613E4B5B693D4A72
:1033A40043F4002353613B4B5B6903F400233B610B
:1033B4003B69384B5B69374A43F480035361354BAF
:1033C4005B6903F48003FB60FB68324B5B69314A41
:1033D40043F4003353612F4B5B6903F40033BB6048
:1033E400BB682C4B5B692B4A43F480235361294B04
:1033F4005B6903F480237B607B68002220214FF00B
:10340400904002F0E3FD00224FF48051224802F084
:10341400DDFD4FF400537B610023BB610023FB619E
:1034240007F1140319461C4802F046FC20237B6173
:103434000123BB610023FB6100233B6207F11403FA
:1034440019464FF0904002F037FC4FF480537B61F3
:103454000123BB610023FB6100233B6207F11403DA
:1034640019460D4802F028FC4FF440737B61122387
:10347400BB610023FB6103233B6204237B6207F1EE
:1034840014031946054802F017FC00BF2837BD464F
:1034940080BD00BF0010024000080048000400483E
:1034A40080B400AF72B600BFFEE7000080B483B002
:1034B40000AF0F4B9B690E4A43F0010393610C4B21
:1034C4009B6903F001037B607B68094BDB69084A55
:1034D40043F08053D361064BDB6903F080533B60B8
:1034E4003B6800BF0C37BD465DF8047B704700BFE6
:1034F4000010024080B590B000AF786007F12C0353
:1035040000221A605A609A60DA601A617B681B684C
:10351400B3F1A04F6ED1784B1B680133764A136028
:10352400754B1B68012B0BD1744B5B69734A43F0D9
:1035340080535361714B5B6903F08053BB62BB6A78
:103544006E4B5B696D4A43F4002353616B4B5B69BB
:1035540003F400237B627B6A684B5B69674A43F42C
:1035640000335361654B5B6903F400333B623B6A90
:103574000B23FB6203233B6300237B6307F12C03D0
:1035840019465F4802F098FB0323FB6203233B6365
:1035940000237B6307F12C0319464FF0904002F09F
:1035A4008BFB584B584A1A60564B00225A60554BB5
:1035B40000229A60534B8022DA60524B4FF400721F
:1035C4001A61504B4FF400625A614E4B00229A61CB
:1035D4004C4B0022DA614B4802F043F90346002BBE
:1035E40001D0FFF75DFF7B68464A9A63454A7B68D2
:1035F40053627CE07B681B68444A934246D13E4B4D
:103604001B6801333C4A13603B4B1B68012B0BD1F5
:103614003A4B5B69394A43F080535361374B5B69DA
:1036240003F08053FB61FB69344B5B69334A43F419
:1036340000235361314B5B6903F40023BB61BB6915
:103644002E4B5B692D4A43F4003353612B4B5B696A
:1036540003F400337B617B690E23FB6203233B632A
:1036640000237B6307F12C031946254802F024FB51
:103674001023FB6203233B6300237B6307F12C03CA
:1036840019464FF0904002F017FB30E07B681B684E
:103694001F4A93422BD1194B5B69184A43F00053DC
:1036A4005361164B5B6903F000533B613B69134B59
:1036B4005B69124A43F480235361104B5B6903F442
:1036C4008023FB60FB680123FB6203233B6300232D
:1036D4007B6307F12C0319460E4802F0EDFA002231
:1036E40000212F2002F087F82F2002F0A0F800BF5D
:1036F4004037BD4680BD00BF441C0020001002407E
:10370400000800483C060020080002400001005068
:10371400000400500004004880B584B000AF786015
:103724007B681B680D4A934213D10D4B9B690C4A6D
:1037340043F4006393610A4B9B6903F40063FB60E9
:10374400FB6800220021192002F055F8192002F02C
:103754006EF800BF1037BD4680BD00BF002C01408D
:103764000010024080B485B000AF78607B681B68AD
:103774000A4A93420BD10A4BDB69094A43F002031C
:10378400D361074BDB6903F00203FB60FB6800BFF6
:103794001437BD465DF8047B704700BF0004004049
:1037A4000010024080B588B000AF786007F10C03C8
:1037B40000221A605A609A60DA601A617B681B689A
:1037C400114A93421CD1114B5B69104A43F4002304
:1037D40053610E4B5B6903F40023BB60BB684FF479
:1037E4007073FB6002233B6100237B610023BB6198
:1037F4000223FB6107F10C031946054802F05CFA49
:1038040000BF2037BD4680BD0004004000100240C8
:103814000008004880B58CB000AF786007F11C0345
:1038240000221A605A609A60DA601A617B681B6829
:10383400374A934231D1374BDB69364A43F400337C
:10384400D361344BDB6903F40033BB61BB69314B97
:103854005B69304A43F4003353612E4B5B6903F4D4
:1038640000337B617B690C23FB6102233B620023F1
:103874007B620323BB620723FB6207F11C03194627
:103884004FF0904002F018FA00220021262001F0A7
:10389400B2FF262001F0CBFF35E07B681B681E4A8F
:1038A400934230D11B4BDB691A4A43F48023D36122
:1038B400184BDB6903F480233B613B69154B5B695F
:1038C400144A43F400235361124B5B6903F400234D
:1038D400FB60FB684FF44063FB6102233B620023FF
:1038E4007B620323BB620723FB6207F11C031946B7
:1038F4000A4802F0E1F900220021272001F07BFFB1
:10390400272001F094FF00BF3037BD4680BD00BFC3
:1039140000440040001002400048004000080048F5
:1039240080B400AFFEE780B400AFFEE780B400AF20
:10393400FEE780B400AFFEE780B400AFFEE780B4DA
:1039440000AF00BFBD465DF8047B704780B400AF94
:1039540000BFBD465DF8047B704780B400AF00BF74
:10396400BD465DF8047B704780B500AF00F0B6F843
:1039740000BF80BD80B500AF024802F08FF800BFE1
:1039840080BD00BF3C06002080B500AF024804F0B3
:103994000DFB00BF80BD00BF8006002080B500AFD6
:1039A400024805F0D3FB00BF80BD00BF180700200C
:1039B40080B500AF024805F0C9FB00BF80BD00BF61
:1039C4009C07002080B500AF024800F023FD00BF33
:1039D40080BD00BFEC05002080B400AF064BD3F8D7
:1039E4008830054A43F47003C2F8883000BFBD46EE
:1039F4005DF8047B704700BF00ED00E0DFF834D0D1
:103A04000D480E490E4A002302E0D458C450043332
:103A1400C4188C42F9D30B4A0B4C002301E0136009
:103A24000432A242FBD3FFF7D7FF06F0C9FCFEF72E
:103A340077FEFEE700000120000000200C000020BB
:103A4400F4A500080C0000204C1C0020FEE7000038
:103A540080B500AF084B1B68074A43F0100313609E
:103A6400032001F0BDFE0F2000F008F8FFF71EFD53
:103A74000023184680BD00BF0020024080B582B0FC
:103A840000AF7860124B1A68124B1B7819464FF43A
:103A94007A73B3FBF1F3B2FBF3F3184601F0D5FEEE
:103AA4000346002B01D001230EE07B680F2B0AD8BC
:103AB400002279684FF0FF3001F09DFE064A7B68D2
:103AC4001360002300E0012318460837BD4680BD7B
:103AD40000000020080000200400002080B400AF93
:103AE400064B1B781A46064B1B681344044A1360A2
:103AF40000BFBD465DF8047B704700BF080000208E
:103B0400481C002080B400AF034B1B681846BD4618
:103B14005DF8047B704700BF481C002080B483B06C
:103B240000AF786000BF0C37BD465DF8047B70477A
:103B340080B483B000AF786000BF0C37BD465DF839
:103B4400047B704780B483B000AF786000BF0C374B
:103B5400BD465DF8047B704780B59AB000AF7860CD
:103B6400002387F8673000233B660023BB607B6833
:103B7400002B01D10123E3E17B681B69002B7B68E7
:103B84001B6C03F01003002B76D17B681B6C002B9D
:103B940052D17B6800225A647B680022DA647B6815
:103BA40000229A647B68002283F83C207868FFF73F
:103BB400A1FC7B681B689B6803F08053002B3BD1FE
:103BC400786801F0D7FC034687F867307B681B6C84
:103BD40003F01003002B2FD197F86730002B2BD163
:103BE4007B681B6C23F4885323F0020343F0020226
:103BF4007B681A647B681B689A687B681B6822F080
:103C040040529A607B681B689A687B681B6842F024
:103C140080529A60924B1B68924AA2FB03239A0C2F
:103C240013469B0013445B00BB6002E0BB68013B8E
:103C3400BB60BB68002BF9D17B681B689B6803F0F1
:103C44008053002B07D07B681B689B6803F00053EC
:103C5400B3F1005F10D17B681B6C23F0120343F0B7
:103C640010027B681A647B685B6C43F001027B681A
:103C74005A64012387F867307B681B6C03F01003D8
:103C8400002B40F0508197F86730002B40F04B81B7
:103C94007B681B689B6803F00403002B40F043819E
:103CA4007B681B6C23F4817343F002027B681A6403
:103CB4007B681B68B3F1A04F04D07B681B686A4A19
:103CC400934201D1694B00E0694BFB657B681B683B
:103CD400B3F1A04F02D1644BFB601AE07B681B6810
:103CE400614A934203D14FF0A043FB6011E07B682B
:103CF4001B68604A934202D15F4BFB6009E07B681A
:103D04001B685D4A934202D15A4BFB6001E00023D9
:103D1400FB607B681B689B6803F00303012B08D1DD
:103D24007B681B681B6803F00103012B01D101238D
:103D340000E00023002B1CD1FB68002B10D0FB6893
:103D44009B6803F00303012B07D1FB681B6803F096
:103D54000103012B01D1012300E00023002B08D132
:103D6400FB6D9B6823F440327B685B681A43FB6DF0
:103D74009A607B685B7E5B037A68526B012A02D08F
:103D84004FF4805200E000221A437B68DB681A4338
:103D94007B689B6813433A6E13433B667B6893F8D6
:103DA4002030012B1BD17B685B7E002B09D17B6803
:103DB4005B6A013B5A043B6E134343F480333B6616
:103DC4000DE07B681B6C23F0220343F020027B6828
:103DD4001A647B685B6C43F001027B685A647B68FD
:103DE4009B6A012B54D07B681B68224A934204D0FF
:103DF4007B681B68204A934240D17B689B6AB3F579
:103E0400307F2AD07B689B6AB3F5807F22D07B68A1
:103E14009B6AB3F5E07F1AD07B689B6AB3F58A5F2F
:103E240012D07B689B6AB3F5845F0AD07B689B6A77
:103E3400B3F5865F02D07B689B6A23E04FF4C073BE
:103E440020E04FF4A0731DE04FF470731AE04FF4B8
:103E5400807317E04FF4307314E04FF4E07311E013
:103E64000000002083DE1B430001005000030050CB
:103E74000007005000040050000500507B689B6A56
:103E840023F480537A68D26A13433A6E13433B6631
:103E94007B681B689B6803F00C03002B14D17B68C0
:103EA4001B68DB687A68126823F4804323F00203FA
:103EB400D3607B681B7E9A037B6893F830305B0089
:103EC40013433A6E13433B667B681B68DA681E4BE8
:103ED40013407A681268396E0B43D3607B681B69A0
:103EE400012B0CD17B681B681B6B23F00F017B68D3
:103EF400DB695A1E7B681B680A431A6307E07B6808
:103F04001B681A6B7B681B6822F00F021A637B68BC
:103F140000225A647B681B6C23F0030343F0010204
:103F24007B681A640AE07B681B6C23F0120343F07D
:103F340010027B681A64012387F8673097F86730AA
:103F440018466837BD4680BD07C0F0FF80B584B011
:103F540000AF78600023FB737B681B689B6803F0E9
:103F64000403002B40F0F9807B6893F83C30012B6C
:103F740001D10223F4E07B68012283F83C207868B5
:103F840001F094FA0346FB73FB7B002B40F0E080C6
:103F94007B681B6C23F4706323F0010343F4807289
:103FA4007B681A647B681B68B3F1A04F04D07B68FC
:103FB4001B686D4A934206D16C4B9B6803F01F0348
:103FC400002B10D005E06A4B9B6803F01F03002B05
:103FD40009D07B681B68B3F1A04F04D07B681B68D1
:103FE400644A934215D17B681B6C23F480127B686E
:103FF4001A647B681B68DB6803F00073002B36D0FF
:104004007B681B6C23F4405343F480527B681A642E
:104014002DE07B681B6C43F480127B681A647B6818
:104024001B68B3F1A04F04D07B681B684E4A9342CF
:104034000AD14FF0A043DB6803F00073002B14BFD8
:1040440001230023DBB208E04A4BDB6803F0007372
:10405400002B14BF01230023DBB2002B07D07B68A5
:104064001B6C23F4405343F480527B681A647B68CE
:104074001B6C03F48053B3F5805F06D17B685B6CE3
:1040840023F006027B685A6402E07B6800225A64CB
:104094007B68002283F83C207B681B681C221A6022
:1040A4007B681B68B3F1A04F04D07B681B682E4A61
:1040B400934206D12D4B9B6803F01F03002B3ED087
:1040C40005E02B4B9B6803F01F03002B37D07B6864
:1040D4001B68B3F1A04F04D07B681B68224A93424B
:1040E40006D1224B9B6803F01F03052B27D005E064
:1040F4001F4B9B6803F01F03052B20D07B681B68B4
:10410400B3F1A04F04D07B681B68174A934206D1D1
:10411400164B9B6803F01F03092B10D005E0144BCA
:104124009B6803F01F03092B09D07B681B68B3F15C
:10413400A04F04D07B681B680E4A93420FD17B6862
:104144001B689A687B681B6842F004029A6006E068
:104154007B68002283F83C2001E00223FB73FB7B95
:1041640018461037BD4680BD0001005000030050C2
:10417400000700500004005080B584B000AF7860A0
:104184000023FB737B681B689B6803F00403002B0C
:1041940040F023817B6893F83C30012B01D102234A
:1041A4001EE17B68012283F83C20786801F07EF9E7
:1041B4000346FB73FB7B002B40F00A817B681B6C7E
:1041C40023F4706323F0010343F480727B681A6460
:1041D4007B681B68B3F1A04F04D07B681B68824ADC
:1041E400934206D1814B9B6803F01F03002B10D030
:1041F40005E07F4B9B6803F01F03002B09D07B680D
:104204001B68B3F1A04F04D07B681B68794A9342C2
:1042140015D17B681B6C23F480127B681A647B685D
:104224001B68DB6803F00073002B36D07B681B6CC3
:1042340023F4405343F480527B681A642DE07B6876
:104244001B6C43F480127B681A647B681B68B3F1AF
:10425400A04F04D07B681B68634A93420AD14FF095
:10426400A043DB6803F00073002B14BF0123002379
:10427400DBB208E05F4BDB6803F00073002B14BF74
:1042840001230023DBB2002B07D07B681B6C23F4D3
:10429400405343F480527B681A647B681B6C03F4BC
:1042A4008053B3F5805F06D17B685B6C23F0060214
:1042B4007B685A6402E07B6800225A647B680022AF
:1042C40083F83C207B681B681C221A607B685B694E
:1042D400082B10D17B681B685A687B681B6822F026
:1042E40004025A607B681B685A687B681B6842F04A
:1042F40008025A6008E07B681B685A687B681B6880
:1043040042F00C025A6000BF7B685B6B012B07D143
:104314007B681B685A687B681B6822F010025A602D
:104324007B681B68B3F1A04F04D07B681B682E4ADE
:10433400934206D12D4B9B6803F01F03002B3ED004
:1043440005E02B4B9B6803F01F03002B37D07B68E1
:104354001B68B3F1A04F04D07B681B68224A9342C8
:1043640006D1224B9B6803F01F03052B27D005E0E1
:104374001F4B9B6803F01F03052B20D07B681B6831
:10438400B3F1A04F04D07B681B68174A934206D14F
:10439400164B9B6803F01F03092B10D005E0144B48
:1043A4009B6803F01F03092B09D07B681B68B3F1DA
:1043B400A04F04D07B681B680E4A93420FD17B68E0
:1043C4001B689A687B681B6842F004029A6006E0E6
:1043D4007B68002283F83C2001E00223FB73FB7B13
:1043E40018461037BD4680BD000100500003005040
:1043F400000700500004005080B483B000AF786020
:104404007B681B681B6C18460C37BD465DF8047B43
:104414007047000080B586B000AF786000237B61F0
:1044240000233B610023FB607B681B681B6803F06F
:104434000403042B06D17B681B685B6803F0040348
:10444400042B0FD07B681B681B6803F00803082B40
:1044540040F0C0807B681B685B6803F00803082B8E
:1044640040F0B8807B681B6C03F01003002B05D16F
:104474007B681B6C43F400727B681A647B681B685E
:10448400B3F1A04F04D07B681B688E4A934206D1D7
:104494008D4B9B6803F01F03002B3ED005E08B4B34
:1044A4009B6803F01F03002B37D07B681B68B3F1B4
:1044B400A04F04D07B681B68824A934206D1824B8A
:1044C4009B6803F01F03052B27D005E07F4B9B68F7
:1044D40003F01F03052B20D07B681B68B3F1A04FAA
:1044E40004D07B681B68774A934206D1764B9B685D
:1044F40003F01F03092B10D005E0744B9B6803F0F5
:104504001F03092B09D07B681B68B3F1A04F04D0AB
:104514007B681B686E4A934204D17B681B68DB6826
:104524003B610FE07B681B68B3F1A04F04D07B684C
:104534001B68644A934202D14FF0A04300E0644BED
:10454400DB683B617B681B68DB6803F44063002B1A
:1045540039D13B6903F40053002B34D17B681B68C9
:104564001B6803F00803082B2DD17B681B689B682C
:1045740003F00403002B1AD17B681B685A687B681C
:104584001B6822F00C025A607B681B6C23F4807257
:104594007B681A647B681B6C03F48053002B12D174
:1045A4007B681B6C43F001027B681A640BE07B6838
:1045B4001B6C43F010027B681A647B685B6C43F0ED
:1045C40001027B685A647868FCF722FF7B681B68E9
:1045D4000C221A607B681B681B6803F02003202BE5
:1045E40006D17B681B685B6803F02003202B0FD087
:1045F4007B681B681B6803F04003402B40F0438139
:104604007B681B685B6803F04003402B40F03B81F0
:104614007B681B6C43F400527B681A647B681B68DC
:10462400B3F1A04F04D07B681B68264A934206D19D
:10463400254B9B6803F01F03002B3ED005E0234B62
:104644009B6803F01F03002B37D07B681B68B3F112
:10465400A04F04D07B681B681A4A934206D11A4BB8
:104664009B6803F01F03052B27D005E0174B9B68BD
:1046740003F01F03052B20D07B681B68B3F1A04F08
:1046840004D07B681B680F4A934206D10E4B9B688B
:1046940003F01F03092B10D005E00C4B9B6803F0BB
:1046A4001F03092B09D07B681B68B3F1A04F04D00A
:1046B4007B681B68064A93420CD17B681B68DB68E5
:1046C4003B6117E000010050000300500007005058
:1046D400000400507B681B68B3F1A04F04D07B68D2
:1046E4001B685B4A934202D14FF0A04300E0594B50
:1046F400DB683B617B681B68DB6C03F0C003002B49
:1047040040F0BA803B6903F00073002B0DD07B6846
:104714001B68DB6803F44063002B40F0AD803B6909
:1047240003F40053002B40F0A7807B681B681B68D0
:1047340003F04003402B40F09F807B681B68B3F17B
:10474400A04F04D07B681B68414A934206D1424B78
:104754009B6803F01F03002B3ED005E03F4B9B6892
:1047640003F01F03002B37D07B681B68B3F1A04F05
:1047740004D07B681B68364A934206D1364B9B684B
:1047840003F01F03062B27D005E0344B9B6803F08E
:104794001F03062B20D07B681B68B3F1A04F04D005
:1047A4007B681B682A4A934206D12B4B9B6803F013
:1047B4001F03072B10D005E0284B9B6803F01F0351
:1047C400072B09D07B681B68B3F1A04F04D07B682A
:1047D4001B68204A934204D17B681B68DB68FB603A
:1047E4000FE07B681B68B3F1A04F04D07B681B68A3
:1047F400174A934202D14FF0A04300E0154BDB6807
:10480400FB60FB6803F40013002B35D17B681B6845
:104814009B6803F00803002B22D17B681B685A684D
:104824007B681B6822F060025A607B681B6C23F46F
:1048340080527B681A647B681B6C03F48073002BC2
:104844001AD17B681B6C43F001027B681A6413E085
:104854000001005000040050000300500007005005
:104864007B681B6C43F010027B681A647B685B6C8A
:1048740043F001027B685A64786800F0ABF97B6806
:104884001B6860221A607B681B681B6803F0800346
:10489400802B13D17B681B685B6803F08003802B3B
:1048A4000CD17B681B6C43F480327B681A64786893
:1048B400FFF73EF97B681B6880221A607B681B68DF
:1048C4001B6803F48073B3F5807F15D17B681B6884
:1048D4005B6803F48073B3F5807F0DD17B681B6C38
:1048E40043F400327B681A64786800F087F97B68C7
:1048F4001B684FF480721A607B681B681B6803F4A2
:104904000073B3F5007F15D17B681B685B6803F403
:104914000073B3F5007F0DD17B681B6C43F48022D8
:104924007B681A64786800F073F97B681B684FF43D
:1049340000721A607B681B681B6803F01003102B5D
:1049440049D17B681B685B6803F01003102B42D1CC
:104954007B685B6B012B02D101237B6125E07B68C3
:104964001B68B3F1A04F04D07B681B682E4A9342A6
:1049740001D12E4B00E02E4BBB60BB689B6803F05B
:104984001F03002B09D17B681B68DB6803F001035C
:10499400012B0AD101237B6107E0BB689B6803F408
:1049A4004043002B01D001237B617B69012B0ED195
:1049B4007B681B6C43F480627B681A647B685B6C65
:1049C40043F002027B685A647868FFF7BBF87B689F
:1049D4001B6810221A607B681B681B6803F48063E1
:1049E400B3F5806F1BD17B681B685B6803F480633D
:1049F400B3F5806F13D17B681B6C43F480427B68F2
:104A04001A647B685B6C43F008027B685A647B68B9
:104A14001B684FF480621A60786800F0E5F800BF04
:104A24001837BD4680BD00BF000100500003005090
:104A34000007005080B59AB000AFF860B9607A60A2
:104A4400002387F8673007F110035022002118462D
:104A540005F0DAFCFB6893F83C30012B01D102230A
:104A6400A2E0FB68012283F83C20FB681B689B687A
:104A740003F00403002B40F09280FB681B68B3F141
:104A8400A04F02D14A4B3B6109E0FB681B68494ACD
:104A9400934202D1484B3B6101E000233B613B69F7
:104AA400002B0BD1FB681B6C43F02002FB681A64DB
:104AB400FB68002283F83C20012375E0F86800F0CD
:104AC400F5FC034687F8673097F86730002B07D169
:104AD40007F11003184600F0E9FC034687F8673035
:104AE40097F86730002B55D1FB681A6C334B134091
:104AF40043F48072FB681A64FB681B68DB6803F08C
:104B04000073002B07D0FB681B6C23F4405343F461
:104B14008052FB681A64FB68002283F83C20FB681F
:104B240000225A64FB689B6B254A9A62FB689B6B64
:104B3400244ADA62FB689B6B234A1A63FB681B688E
:104B4400B3F1A04F04D0FB681B68194A934201D10A
:104B54001E4B00E01E4B3B66FB681B681C221A6060
:104B6400FB681B685A68FB681B6842F010025A60B5
:104B7400FB68986B3B6E0C331946BA687B6800F08F
:104B8400B7FEFB681B689A68FB681B6842F0040266
:104B94009A6007E0FB68002283F83C2002E00223CD
:104BA40087F8673097F8673018466837BD4680BD88
:104BB400000100500004005000050050FEF0EFFF1B
:104BC400E55300085F5400087B54000800030050BC
:104BD4000007005080B483B000AF786000BF0C378A
:104BE400BD465DF8047B704780B483B000AF786045
:104BF40000BF0C37BD465DF8047B704780B483B0BA
:104C040000AF786000BF0C37BD465DF8047B704789
:104C140080B483B000AF786000BF0C37BD465DF848
:104C2400047B704780B49BB000AF78603960002388
:104C340087F867300023BB607B6893F83C30012B16
:104C440001D10223CAE27B68012283F83C207B68FD
:104C54001B689B6803F00403002B40F0AE823B68A2
:104C64005B68042B1CD87B681B68196B3B685A680B
:104C740013465B0013445B001A461F239340DB4337
:104C840019403B6818683B685A6813465B00134434
:104C94005B0000FA03F27B681B680A431A6363E053
:104CA4003B685B68092B1ED87B681B68596B3B68A3
:104CB4005A6813465B0013445B001E3B1F2202FA32
:104CC40003F3DB4319403B6818683B685A68134692
:104CD4005B0013445B001E3B00FA03F27B681B6815
:104CE4000A435A6340E03B685B680E2B1ED87B681E
:104CF4001B68996B3B685A6813465B0013445B005E
:104D04003C3B1F2202FA03F3DB4319403B6818685B
:104D14003B685A6813465B0013445B003C3B00FA53
:104D240003F27B681B680A439A631DE07B681B6877
:104D3400D96B3B685A6813465B0013445B005A3BCB
:104D44001F2202FA03F3DB4319403B6818683B68EF
:104D54005A6813465B0013445B005A3B00FA03F2A3
:104D64007B681B680A43DA637B681B689B6803F0F3
:104D74000C03002B40F0E5803B681B68092B1CD911
:104D84007B681B6899693B681A6813465B00134487
:104D94001E3B072202FA03F3DB4319403B68986881
:104DA4003B681A6813465B0013441E3B00FA03F287
:104DB4007B681B680A439A6119E07B681B68596920
:104DC4003B681A6813465B001344072202FA03F394
:104DD400DB4319403B6898683B681A6813465B00DC
:104DE400134400FA03F27B681B680A435A613B6868
:104DF4005A697B681B68DB68DB0803F003035B000C
:104E040002FA03F33B663B681B69013B032B4FD853
:104E140001A252F823F000BF2D4E00084F4E0008A7
:104E2400714E0008934E00087B681B681A6E9A4BFB
:104E340013403A68126891063A6E0A431A437B6833
:104E44001B6842F000421A667EE07B681B685A6E5B
:104E5400914B13403A68126891063A6E0A431A431A
:104E64007B681B6842F000425A666DE07B681B68F1
:104E74009A6E894B13403A68126891063A6E0A4357
:104E84001A437B681B6842F000429A665CE07B68C8
:104E94001B68DA6E804B13403A68126891063A6ECA
:104EA4000A431A437B681B6842F00042DA664BE00F
:104EB4007B681B681B6E03F0F8423B681B689B060B
:104EC4009A4207D17B681B681A6E7B681B6822F0C4
:104ED40000421A667B681B685B6E03F0F8423B680D
:104EE4001B689B069A4207D17B681B685A6E7B68D5
:104EF4001B6822F000425A667B681B689B6E03F0B5
:104F0400F8423B681B689B069A4207D17B681B6882
:104F14009A6E7B681B6822F000429A667B681B6865
:104F2400DB6E03F0F8423B681B689B069A420AD189
:104F34007B681B68DA6E7B681B6822F00042DA66C5
:104F440001E000BF00E000BF7B681B689B6803F0C2
:104F54000303012B08D17B681B681B6803F0010362
:104F6400012B01D1012300E00023002B40F030810C
:104F74003B68DB68012B0FD07B681B68D3F8B0104B
:104F84003B681B68012202FA03F3DA437B681B685F
:104F94000A40C3F8B02049E07B681B68D3F8B0101E
:104FA4003B681B6801229A407B681B680A43C3F86C
:104FB400B0203B681B68092B1CD97B681B68996966
:104FC4003B681A6813465B0013441B3B072202FA32
:104FD40003F3DB4319403B6898683B681A6813463F
:104FE4005B0013441B3B00FA03F27B681B680A4313
:104FF4009A611BE07B681B6859693B681B685A1CF3
:1050040013465B001344072202FA03F3DB431940FF
:105014003B6898683B681B685A1C13465B00134442
:1050240000FA03F27B681B680A435A617B681B68B9
:10503400B3F1A04F04D07B681B68184A934201D196
:10504400174B00E0174BFB653B681B68102B05D121
:10505400FB6D9B6803F40003002B15D03B681B68B1
:10506400112B05D1FB6D9B6803F08073002B0BD0D3
:105074003B681B68122B40F0AB80FB6D9B6803F40C
:105084008003002B40F0A4807B681B68B3F1A04F21
:105094000AD1024BFB6022E000F0FF8300010050C4
:1050A40000030050000700507B681B684E4A93427F
:1050B40003D14FF0A043FB6011E07B681B684B4AAF
:1050C400934202D14A4BFB6009E07B681B68484A63
:1050D400934202D1454BFB6001E00023FB607B68F7
:1050E4001B689B6803F00303012B08D17B681B68D2
:1050F4001B6803F00103012B01D1012300E000230D
:10510400002B50D1FB68002B10D0FB689B6803F088
:105114000303012B07D1FB681B6803F00103012B78
:1051240001D1012300E00023002B3CD13B681B6824
:10513400102B1DD17B681B68B3F1A04F18D1FB6DF8
:105144009B6843F40002FB6D9A602A4B1B682A4A51
:10515400A2FB03239A0C13469B0013445B00BB6021
:1051640002E0BB68013BBB60BB68002BF9D12EE0B9
:105174003B681B68112B0BD17B681B68B3F1A04FF4
:1051840006D1FB6D9B6843F08072FB6D9A601EE054
:105194003B681B68122B1AD1FB6D9B6843F4800299
:1051A400FB6D9A6013E07B681B6C43F020027B6804
:1051B4001A64012387F867300AE07B681B6C43F0AC
:1051C40020027B681A64012387F8673000E000BF7F
:1051D4007B68002283F83C2097F8673018466C37C8
:1051E400BD465DF8047B7047000100500004005088
:1051F400000500500000002083DE1B4380B499B0FA
:1052040000AF78603960002387F85F307B681B68E3
:10521400B3F1A04F02D16D4BBB601AE07B681B68F1
:105224006A4A934203D14FF0A043BB6011E07B680C
:105234001B68674A934202D1664BBB6009E07B68F6
:105244001B68644A934202D1614BBB6001E00023B6
:10525400BB60BB68002B01D10123B0E07B6893F8ED
:105264003C30012B01D10223A9E07B68012283F8A1
:105274003C207B681B689B6803F00403002B40F010
:105284008D80BB689B6803F00403002B40F086808C
:105294007B681B68B3F1A04F04D07B681B684B4A42
:1052A400934201D14C4B00E04C4BBB653B681B68FF
:1052B400002B40D0BB6D9B6823F460423B68596867
:1052C4007B6893F830305B030B431A43BB6D9A60E1
:1052D4007B681B689B6803F00303012B08D17B6880
:1052E4001B681B6803F00103012B01D1012300E0BB
:1052F4000023002B5CD1BB689B6803F00303012BE4
:1053040007D1BB681B6803F00103012B01D1012302
:1053140000E00023002B4BD1BB6D9B6823F4716329
:1053240023F00F033A6811683A6892680A431A43F3
:10533400BB6D9A603CE0BB6D9B6823F46042BB6D1F
:105344009A607B681B689B6803F00303012B08D1F8
:105354007B681B681B6803F00103012B01D1012347
:1053640000E00023002B23D1BB689B6803F00303F8
:10537400012B07D1BB681B6803F00103012B01D18A
:10538400012300E00023002B12D1BB6D9B6823F4A2
:10539400716323F00F03BA6D936009E07B681B6CA3
:1053A40043F020027B681A64012387F85F3000E031
:1053B40000BF7B68002283F83C2097F85F301846D2
:1053C4006437BD465DF8047B704700BF00010050A0
:1053D4000004005000050050000300500007005076
:1053E40080B584B000AF78607B685B6AFB60FB6863
:1053F4001B6C03F05003002B26D1FB681B6C43F499
:105404000072FB681A64FB681B68DB6803F4406382
:10541400002B15D1FB685B7E002B11D1FB681B6C44
:1054240023F48072FB681A64FB681B6C03F48053DA
:10543400002B05D1FB681B6C43F00102FB681A6466
:10544400F868FBF7E5FF04E0FB689B6B1B6B78686F
:10545400984700BF1037BD4680BD80B584B000AF0B
:1054640078607B685B6AFB60F868FEF757FB00BFF7
:105474001037BD4680BD80B584B000AF78607B68CE
:105484005B6AFB60FB681B6C43F04002FB681A64B8
:10549400FB685B6C43F00402FB685A64F868FEF72F
:1054A40051FB00BF1037BD4680BD000080B584B0FD
:1054B40000AF78600023FB607B681B689B6803F087
:1054C4000303012B08D17B681B681B6803F00103ED
:1054D400012B01D1012300E00023002B43D17B6881
:1054E4001B689A68224B1340002B0DD07B681B6C01
:1054F40043F010027B681A647B685B6C43F0010222
:105504007B685A6401232FE07B681B689A687B6878
:105514001B6842F001029A60FEF7F4FAF8601BE09F
:10552400FEF7F0FA0246FB68D31A022B14D97B6803
:105534001B681B6803F00103012B0DD07B681B6CF7
:1055440043F010027B681A647B685B6C43F00102D1
:105554007B685A64012307E07B681B681B6803F0BF
:105564000103012BDCD1002318461037BD4680BD52
:105574003F00008080B584B000AF78600023FB60FA
:105584007B681B689B6803F00303012B08D17B68CD
:105594001B681B6803F00103012B01D1012300E008
:1055A4000023002B47D07B681B689B6803F00D0326
:1055B400012B0FD17B681B689A687B681B6842F0DB
:1055C40002029A607B681B6803221A60FEF79AFA4B
:1055D400F86029E07B681B6C43F010027B681A6456
:1055E4007B685B6C43F001027B685A64012323E00F
:1055F400FEF788FA0246FB68D31A022B14D97B689B
:105604001B689B6803F00103012B0DD17B681B6CA5
:1056140043F010027B681A647B685B6C43F0010200
:105624007B685A64012307E07B681B689B6803F06E
:105634000103012BDCD0002318461037BD4680BD82
:1056440080B485B000AF78607B6803F00703FB602B
:105654000C4BDB68BB60BA684FF6FF031340BB60BA
:10566400FB681A02BB68134343F0BF6343F400337F
:10567400BB60044ABB68D36000BF1437BD465DF805
:10568400047B704700ED00E080B400AF044BDB689E
:105694001B0A03F007031846BD465DF8047B7047F8
:1056A40000ED00E080B483B000AF0346FB7197F9CE
:1056B4000730002B0BDBFB7903F01F02074997F936
:1056C40007305B09012000FA02F241F8232000BFF1
:1056D4000C37BD465DF8047B704700BF00E100E075
:1056E40080B483B000AF03463960FB7197F907308B
:1056F400002B0ADB3B68DAB20C4997F90730120138
:10570400D2B20B4483F800230AE03B68DAB20849BA
:10571400FB7903F00F03043B1201D2B20B441A7657
:1057240000BF0C37BD465DF8047B704700E100E024
:1057340000ED00E080B489B000AFF860B9607A6031
:10574400FB6803F00703FB61FB69C3F10703042B48
:1057540028BF0423BB61FB690433062B02D9FB6910
:10576400033B00E000237B614FF0FF32BB6902FA88
:1057740003F3DA43BB681A407B699A404FF0FF3168
:105784007B6901FA03F3D9437B680B401343184642
:105794002437BD465DF8047B7047000080B582B0B5
:1057A40000AF78607B68013BB3F1807F01D30123B4
:1057B4000FE00A4A7B68013B53600F214FF0FF3032
:1057C400FFF78EFF054B00229A60044B07221A60F4
:1057D400002318460837BD4680BD00BF10E000E036
:1057E40080B582B000AF78607868FFF729FF00BF0A
:1057F4000837BD4680BD80B586B000AF0346B960AA
:105804007A60FB7300237B61FFF73EFF78617A685F
:10581400B9687869FFF78EFF024697F90F30114691
:105824001846FFF75DFF00BF1837BD4680BD80B541
:1058340082B000AF0346FB7197F907301846FFF7B3
:1058440031FF00BF0837BD4680BD80B582B000AFD0
:1058540078607868FFF7A2FF034618460837BD460C
:1058640080BD80B584B000AF78600023FB607B68A6
:10587400002B01D1012337E07B68022283F8212029
:105884007B681B681B68FB60FB6823F47F5323F071
:105894003003FB607B685A687B689B681A437B68AB
:1058A400DB681A437B681B691A437B685B691A438C
:1058B4007B689B691A437B68DB691343FA6813436B
:1058C400FB607B681B68FA681A60786800F0B8F9B6
:1058D4007B6800229A637B68012283F821207B681D
:1058E400002283F82020002318461037BD4680BDCF
:1058F40080B586B000AFF860B9607A603B60002381
:10590400FB75FB6893F82030012B01D102234AE098
:10591400FB68012283F82020FB6893F82130012BD7
:105924003AD1FB68022283F82120FB6800229A63A3
:10593400FB681B681A68FB681B6822F001021A6086
:105944003B687A68B968F86800F04BF9FB68DB6A71
:10595400002B08D0FB681B681A68FB681B6842F0C0
:105964000E021A600FE0FB681B681A68FB681B686C
:1059740042F00A021A60FB681B681A68FB681B681D
:1059840022F004021A60FB681B681A68FB681B6833
:1059940042F001021A6005E0FB68002283F820202F
:1059A4000223FB75FB7D18461837BD4680BD80B4C5
:1059B40083B000AF78607B6893F82130022B08D065
:1059C4007B6804229A637B68002283F820200123E9
:1059D40020E07B681B681A687B681B6822F00E0253
:1059E4001A607B681B681A687B681B6822F00102D6
:1059F4001A607B681A6C7B68DB6B012101FA02F286
:105A04005A607B68012283F821207B68002283F896
:105A14002020002318460C37BD465DF8047B7047F0
:105A240080B584B000AF78600023FB737B6893F883
:105A34002130022B05D07B6804229A630123FB7377
:105A440027E07B681B681A687B681B6822F00E02DB
:105A54001A607B681B681A687B681B6822F0010265
:105A64001A607B681A6C7B68DB6B012101FA02F215
:105A74005A607B68012283F821207B68002283F826
:105A840020207B685B6B002B03D07B685B6B7868A2
:105A94009847FB7B18461037BD4680BD80B584B05F
:105AA40000AF78607B68DB6B1B68FB607B681B68FE
:105AB4001B68BB607B681B6C04229A40FB68134024
:105AC400002B24D0BB6803F00403002B1FD07B6899
